:100000000C9492000C94AF000C94AF000C94AF00D1
:100010000C94AF000C94AF000C94AF000C94AF00A4
:100020000C94AF000C94AF000C94AF000C94AF0094
:100030000C94AF000C94AF000C94AF000C94AF0084
:100040000C94AF000C94AF000C94AF000C94AF0074
:100050000C94AF000C94AF000C94AF000C94AF0064
:100060000C94AF000C94AF000C94AF000C94AF0054
:100070000C94AF000C94AF000C94AF000C94AF0044
:100080000C94AF000C94AF000C94AF000C94AF0034
:100090000C94AF000C94AF000C94AF000C94AF0024
:1000A0000C94AF000C94AF000C94AF000C94AF0014
:1000B0000C94AF000C94AF000C94AF000C94AF0004
:1000C0000C94AF000C94AF000C94AF00760C7E0C37
:1000D0006E0C660C5E0C560C4E0C460C3E0C360C30
:1000E0002E0C260C416464722E204F666673657474
:1000F00020202030202031202032202033202034A6
:10010000202035202036202037202038202039207C
:100110002041202042202043202044202045202030
:10012000460A0D0011241FBECFEFD8E0DEBFCDBFC1
:1001300012E0A0E0B1E0E4E1F1E202C005900D922E
:10014000AA30B107D9F722E0AAE0B2E001C01D92BF
:10015000A838B207E1F70E94B4030C9488100C94FD
:1001600000008AE592E008952F923F924F925F92AD
:100170006F927F928F929F92AF92BF92CF92DF92B7
:10018000EF92FF920F931F93CF93DF93CDB7DEB71C
:1001900027970FB6F894DEBF0FBECDBF4B015C01B1
:1001A0005A8349830E94A60C8C839D8380915B02B5
:1001B000823049F440906C0250906D0260906E0263
:1001C00070906F0205C040905A02512C612C712C26
:1001D00040915E0250915F0229813A81C501B401CC
:1001E0000E94C40A8111CDC07501640100E010E0D5
:1001F0001F821E8269817A818E819F810E94F50A09
:10020000382E25EE821709F48AC0882309F487C0A6
:1002100069817A818E819F810B960E94F50A8B837A
:100220008E7009F07CC00F5F1F4F1F930F9380E00B
:1002300091E09F938F938D818F939C819F930E94D8
:100240009E0D40E06C817D8188EC90E00E94CF0C97
:100250000F900F900F900F900F900F90212C0EC0C9
:1002600069817A818E819F81820D911D0E94F50A9C
:10027000682F88EC90E00E949A0C239427E02215C6
:1002800078F78B8184FD10C026C069817A818E81C8
:100290009F81820D911D0E94F50A682F88EC90E0E5
:1002A0000E949A0C239403C06894222423F89AE0B5
:1002B000921558F788E0E6E0F1E0AC81BD8101904D
:1002C0000D928A95E1F740E06C817D8188EC90E0A9
:1002D0000E94CF0C24C06EE288EC90E00E949A0C41
:1002E0006894222423F80EC069817A818E819F81CF
:1002F000820D911D0E94F50A682F88EC90E00E9403
:100300009A0C23942AE0221578F76DE088EC90E0AF
:100310000E949A0C6AE088EC90E00E949A0C8E8110
:100320009F8180969F838E838F3F914038F18FEF1E
:10033000C81AD80AE80AF80AD701C6018819990923
:10034000AA09BB0984159505A605B70578F440915F
:100350005E0250915F0229813A81C701B6010E9475
:10036000C40A811106C01F821E8208C01068312C89
:1003700005C0312C00E010E01F821E8231103ACF00
:1003800002C000E010E0C80127960FB6F894DEBF67
:100390000FBECDBFDF91CF911F910F91FF90EF90D6
:1003A000DF90CF90BF90AF909F908F907F906F9095
:1003B0005F904F903F902F9008952F923F924F92D1
:1003C0005F926F927F928F929F92AF92BF92CF92E5
:1003D000DF92EF92FF921F93CF93DF93CDB7DEB7FB
:1003E0002C970FB6F894DEBF0FBECDBF6B017C011A
:1003F0005A874987190180915B02823049F48090C5
:100400006C0290906D02A0906E02B0906F0206C0D8
:1004100080915A02882E912CA12CB12C40915E0221
:1004200050915F029101C701B6010E94C40A811177
:10043000C7C02601370118861F8219821A821B82C3
:100440001C8220E030E03C872B87B1018B859C85A6
:100450000E94F50A182F853E09F47CC0882309F410
:1004600079C04B855C85455F5F4F5E834D83B101ED
:10047000CA010E94F50A8E7009F06CC08F819885C0
:10048000019698878F83A985BA858A179B0709F0FB
:1004900061C080915B02843031F5B1018B859C8510
:1004A00045960E94F50A90E0A0E0B0E02227382FA0
:1004B000492F5A2F29833A834B835C83B1018B8563
:1004C0009C8544960E94F50A29813A814B815C8182
:1004D000282BDA01C9012227382F492F5A2F2983C7
:1004E0003A834B835C83B1018B859C854B960E943C
:1004F000F50A29813A814B815C81282BDA01C901F7
:100500002227382F492F5A2F29833A834B835C8324
:10051000B1018B859C854A960E94F50A29813A8112
:100520004B815C81282B29833A834B835C83B10107
:100530008D819E810E94F50A84FF0BC089819A817A
:10054000AB81BC81B06189839A83AB83BC8310E0AB
:1005500001C010E0AB85BC859096BC87AB87AF3FF0
:10056000B14058F13FEF431A530A630A730AD301AB
:10057000C2018C199D09AE09BF0988159905AA0504
:10058000BB0570F440915E0250915F029101C3017E
:10059000B2010E94C40A811105C01C861B860DC0D1
:1005A00010E00BC010E01C861B8680E090E0A0E00D
:1005B000B0E889839A83AB83BC83111146CF08C00E
:1005C00020E030E040E050E829833A834B835C83AD
:1005D00089819A81AB81BC81892B8A2B8B2B41F439
:1005E00020E030E040E050E829833A834B835C838D
:1005F00069817A818B819C812C960FB6F894DEBF3D
:100600000FBECDBFDF91CF911F91FF90EF90DF9094
:10061000CF90BF90AF909F908F907F906F905F90A2
:100620004F903F902F900895FC012181622B6183B0
:100630000895FC012281622B62830895FC0192815E
:1006400060956923628308958F929F92AF92BF92C3
:10065000EF92FF920F931F93CF93DF93CDB7DEB747
:100660002B970FB6F894DEBF0FBECDBF7C0180E0A4
:1006700008C0E1E0F0E0EC0FFD1FE80FF11D108273
:100680008F5F8B30B0F388248A94982C540100E05B
:10069000C7010E94A00C182F80ED810F8A3068F4EA
:1006A000612FC7010E949A0CE1E0F0E0EC0FFD1F02
:1006B000E00FF11D10830F5F2DC0183011F01F37B0
:1006C000A9F40150E1E0F0E0EC0FFD1FE00FF11D97
:1006D000108268E0C7010E949A0C60E2C7010E9484
:1006E0009A0C68E0C7010E949A0C14C01D3021F0DA
:1006F0001A3011F01E3271F4CE0101960E94620D83
:100700004B015C016DE0C7010E949A0C6AE0C701D1
:100710000E949A0C0A3071F4CE0101960E94620D7B
:100720004B015C016DE0C7010E949A0C6AE0C701B1
:100730000E949A0C8FEF88169806A806B80609F44E
:10074000A7CFC501B4012B960FB6F894DEBF0FBE3C
:10075000CDBFDF91CF911F910F91FF90EF90BF9090
:10076000AF909F908F9008954F925F926F927F927B
:100770008F929F92AF92BF92CF92DF92EF92FF92B1
:100780000F931F93CF93DF93CDB7DEB7C356D240FD
:100790000FB6F894DEBF0FBECDBF60E875E288ECFF
:1007A00090E00E948E0C40E85AE166E070E08CE434
:1007B00090E00E946D0B87E0E2E6F1E0DE01AF5FC2
:1007C000BD4F01900D928A95E1F786E0E9E6F1E0F0
:1007D000DE01A85FBD4F01900D928A95E1F760E1BF
:1007E00083E290E00E94140346E0BE016F5F7D4FFC
:1007F00088EC90E00E94CF0C8CE490E00E942606EA
:10080000182F882329F0682F88EC90E00E94190C9B
:100810001111F2CF0E94B1008C01CE01825F9D4F79
:100820000E94FB0786E1FE01E25FFD4FD8010190C7
:100830000D928A95E1F760E070E0CB010E94D80943
:10084000862E972EA82EB92E40E052E16AE770E07E
:100850008CE490E00E946D0B4FE06EE071E088EC5C
:1008600090E00E94CF0C9E012F5F3F4F40E052E08E
:10087000682D792D8A2D9B2D0E94C40A811168C094
:10088000C82CD92CEA2CFB2CAE014F5F5F4FC7015F
:10089000B6010E94B400182F4EE06EE171E088ECC2
:1008A00090E00E94CF0C88EC90E00E9424036B0142
:1008B0007C010DC049E26DE271E088EC90E00E949D
:1008C000CF0C88EC90E00E9424036B017C01812F07
:1008D00090E0A0E0B0E08C159D05AE05BF0550F39B
:1008E0009E012F5F3F4FA601682D792D8A2D9B2DEC
:1008F0000E94DD012B013C017F926F925F926F930A
:1009000087E591E09F938F938E010C5D1D4F1F93A0
:100910000F930E949E0D40E4B80188EC90E00E9485
:10092000CF0C0FB6F894DEBF0FBECDBF74FE08C06B
:10093000C301B2019F700E94D8096B017C01A4CF52
:10094000AE014F5F5F4FC301B2010E94620A9CCFAC
:10095000682F88EC90E00E94190C45E0BE01685FAA
:100960007D4F88EC90E00E94CF0C6AE088EC90E02C
:100970000E949A0C80E090E0CD59DD4F0FB6F894BC
:10098000DEBF0FBECDBFDF91CF911F910F91FF90C2
:10099000EF90DF90CF90BF90AF909F908F907F901F
:1009A0006F905F904F900895CF92DF92FF920F93D8
:1009B0001F93CF93DF938C016B010E94A60CF82E3E
:1009C000D92F0C0D1D1D1F930F938FE691E09F9360
:1009D0008F93DF93FF920E949E0D40E06F2D7D2F3D
:1009E00088EC90E00E94CF0CDF92CF9283E791E0F9
:1009F0009F938F93DF93FF920E949E0D40E06F2D97
:100A00007D2F88EC90E00E94CF0C8DB79EB70C969E
:100A10000FB6F8949EBF0FBE8DBFC0E01CC0F8019A
:100A2000EC0FF11D80811F928F932DE731E03F93F2
:100A30002F93DF93FF920E949E0D40E06F2D7D2F3C
:100A400088EC90E00E94CF0CCF5F0F900F900F903A
:100A50000F900F900F90C03110F3C0E00EC0F8015E
:100A6000EC0FF11D608180EE860F803608F06EE29B
:100A700088EC90E00E949A0CCF5FC03180F36DE06B
:100A800088EC90E00E949A0C6AE088EC90E00E946A
:100A90009A0CDF91CF911F910F91FF90DF90CF9033
:100AA0000895EF92FF920F931F93CF93DF937C01F2
:100AB0008B010E94A60CEC0140E0BC0184EE90E0AA
:100AC0000E94A90C40E0BE0188EC90E00E94CF0C8F
:100AD000C0E0D0E0BE01C7010E94D4046096C017F8
:100AE000D107C0F3DF91CF911F910F91FF90EF904D
:100AF00008950E941E0308950E94190308958F927D
:100B00009F92AF92BF92EF92FF920F931F93CF935A
:100B1000DF931F92CDB7DEB76034E0F549015A018B
:100B20007C01162F1064AE014F5F5F4F612F0E9452
:100B3000FA0B811130C004E01CC0402F50E041503E
:100B40005109440F551F440F551F440F551FC50130
:100B5000B40104C096958795779567954A95D2F725
:100B6000AE014F5F5F4FC7010E94FA0B811113C0A6
:100B700001500111E2CF103411F061E001C065E9CC
:100B8000183409F467E8AE014F5F5F4FC7010E9458
:100B9000FA0B01C08EEF0F90DF91CF911F910F9153
:100BA000FF90EF90BF90AF909F908F900895CF925D
:100BB000DF92EF92FF920F931F93CF93DF931F92D9
:100BC000CDB7DEB77C01062F6A01198210E0AE01B5
:100BD0004F5F5F4F6FEFC7010E94FA0B1F5F898164
:100BE0008F3F11F41111F3CF112329F1982F9E7F1C
:100BF00021F0F60180838DEF1FC0F6018083023063
:100C000078F411C0AE014F5F5F4F6FEFC7010E94D4
:100C1000FA0BF601E10FF11D898180831F5F01C08E
:100C200011E0011778F7AE014F5F5F4F6FEFC7011B
:100C30000E94FA0B01C08FEF0F90DF91CF911F91AF
:100C40000F91FF90EF90DF90CF9008958F929F9239
:100C5000AF92BF92EF92FF920F931F93CF93DF93C8
:100C6000CDB7DEB729970FB6F894DEBF0FBECDBF64
:100C70007C011982FE01329688E0DF011D928A957F
:100C8000E9F760E183E290E00E947C0510E008C093
:100C9000AE014F5F5F4F6FEFC7010E94BB0B1F5F3D
:100CA0001830B0F360E183E290E00E94790520E023
:100CB00030E0A90160E0C7010E947F0581110CC0EE
:100CC000AE014E5F5F4F61E0C7010E94D70560E152
:100CD00083E290E00E947C058A81813009F0DCC0CB
:100CE00060E183E290E00E9479052AEA31E040E089
:100CF00050E068E0C7010E947F05182F81110DC0E8
:100D0000AE014E5F5F4F65E0C7010E94D705182F07
:100D100060E183E290E00E947C058A81813059F491
:100D2000111109C08D81813009F0B8C08E818A3AD5
:100D300049F08CEFD4C0853009F0B2C0812C912CE1
:100D4000540105C0812C912C54016894B6F860E1DF
:100D500083E290E00E94790520E030E0A9016AE397
:100D6000C7010E947F0581119DC0AE014E5F5F4F9C
:100D700065E0C7010E94D705182F60E183E290E08B
:100D80000E947C05111190C08A81813009F08EC0CB
:100D90008C818C7F8C3F09F08BC000E010E033C069
:100DA00060E183E290E00E94790520E030E0A90153
:100DB00067E3C7010E947F0581117CC0AE014E5FD1
:100DC0005F4F61E0C7010E94D7058A81813009F039
:100DD00073C0A501940169E2C7010E947F058111DA
:100DE0006DC0AE014E5F5F4F61E0C7010E94D70545
:100DF000811166C00F5F1F4F09F464C060E183E298
:100E000090E00E947C058A818111CACF60E183E273
:100E100090E00E94790520E030E0A9016AE3C70173
:100E20000E947F05811150C0AE014E5F5F4F65E0AB
:100E3000C7010E94D705182F60E183E290E00E946D
:100E40007C05111143C08B8188230CF041C0807C4C
:100E5000803C09F03FC060E183E290E00E947905A8
:100E600020E032E040E050E060E1C7010E947F05F1
:100E7000811132C0AE014E5F5F4F61E0C7010E9439
:100E8000D705182F8A81811129C060E183E290E0A3
:100E90000E947C05812F23C08BEF21C08CEF1FC0E7
:100EA0008AEF1DC089EF1BC089EF19C089EF17C0F9
:100EB00089EF15C088EF13C088EF11C087EF0FC00E
:100EC00087EF0DC086EF0BC089EF09C089EF07C01F
:100ED00089EF05C089EF03C085EF01C085EF299632
:100EE0000FB6F894DEBF0FBECDBFDF91CF911F913B
:100EF0000F91FF90EF90BF90AF909F908F900895CB
:100F00008F929F92AF92BF92CF92DF92EF92FF9219
:100F10000F931F93CF93DF931F92CDB7DEB77C0162
:100F20005B016A01198210E0AE014F5F5F4F6FEF06
:100F3000C7010E94FA0B1F5F9981992324F4811144
:100F400002C01111F1CF811143C0911143C0AE0114
:100F50004F5F5F4F6FEFC7010E94FA0B082F1F5FB3
:100F600089818F3F21F4011102C01111F0CF8E3F12
:100F700099F5BE016F5F7F4FC7010E94DA0B89812F
:100F8000F601808388248394912C10C0AE014F5FBA
:100F90005F4F6FEFC7010E94FA0B082FF601E80DB3
:100FA000F91D89818083FFEF8F1A9F0A8A149B04A1
:100FB00068F310E009C0AE014F5F5F4F6FEFC701EC
:100FC0000E94BB0B082F1F5F1330A8F3802F05C0B2
:100FD0008BEF03C08AEF01C08FEF0F90DF91CF91AD
:100FE0001F910F91FF90EF90DF90CF90BF90AF9047
:100FF0009F908F9008952F923F924F925F926F92A1
:101000007F928F929F92AF92BF92CF92DF92EF9298
:10101000FF920F931F93CF93DF93CDB7DEB7C650E8
:10102000D2400FB6F894DEBF0FBECDBF1C019E01AB
:101030002F5F3F4F40E052E060E070E0CB010E9444
:10104000C40A182F811194C189818B3EA9F0893E71
:10105000B9F0BE016F5F7F4F86EC91E00E94040BF8
:101060006B017C019E012F5F3F4F40E052E00E94E8
:10107000C40A81117FC107C0C12CD12C760103C0E5
:10108000C12CD12C760189818B3E19F0893E09F063
:1010900073C1BE016F5F7F4F8BE090E00E94FA0A40
:1010A000D10115969C938E931497BE016F5F7F4F6D
:1010B0008DE090E00E94F50AF1018083BE016F5F30
:1010C0007F4F8EE090E00E94FA0A5C01BE016F5FE4
:1010D0007F4F80E190E00E94F50A082FBE016F5F0C
:1010E0007F4F81E190E00E94FA0ACB5FDD4F998348
:1010F0008883C550D240BE016F5F7F4F83E190E08F
:101100000E94FA0A2C01612C712C411451046104D3
:10111000710449F4BE016F5F7F4F80E290E00E944E
:10112000040B2B013C01BE016F5F7F4F86E190E015
:101130000E94FA0A9C0140E050E0CF5FDD4F288317
:1011400039834A835B83C150D240232B242B252B28
:1011500079F4BE016F5F7F4F84E290E00E94040B40
:10116000CF5FDD4F688379838A839B83C150D240F0
:10117000D1012C9130E040E050E0C301B2010E9467
:10118000200D253F3F4F4105510520F480E1F1013D
:10119000818304C080E2D10111968C934501A12C7A
:1011A000B12CF10186869786A08AB18A818180322E
:1011B00029F5A02FB0E0CF5FDD4F288139814A812A
:1011C0005B81C150D2400E94480D24013501460E7A
:1011D000571E681E791EBE016F5F7F4F8CE290E044
:1011E0000E94040B460E571E681E791ED1011696EA
:1011F0004D925D926D927C92199736C0BE016F5FE1
:101200007F4F81E190E00E94FA0A880F991F829532
:101210009295907F9827807F9827F101648175814E
:10122000860F971F01970E940C0DCB01A0E0B0E044
:10123000828B938BA48BB58B46845784608871888E
:10124000A02FB0E0CF5FDD4F288139814A815B81DB
:10125000C150D2400E94480D460E571E681E791E8E
:101260004682578260867186F1014681578160858A
:10127000718582899389A489B589840F951FA61FDA
:10128000B71F82879387A487B587D701C601880DCA
:10129000991DAA1DBB1D8093840290938502A09383
:1012A0008602B0938702CB5FDD4F88819981C5505C
:1012B000D240880F991F82959295907F9827807FC2
:1012C00098270480F581E02D8E0F9F1F0197BF01A5
:1012D0000E940C0D2B01612C712C409278025092CF
:1012E000790260927A0270927B02A02FB0E0CF5F09
:1012F000DD4F288139814A815B81C150D2400E94F3
:10130000480DDC01CB01880D991DAA1DBB1D480E9F
:10131000591E6A1E7B1EC40CD51CE61CF71CC0920D
:101320007002D0927102E0927202F0927302D101C7
:101330008C9190E0A0E0B0E080937C0290937D02DD
:10134000A0937E02B0937F02809274029092750205
:10135000A0927602B0927702CF01A0E0B0E0809335
:10136000800290938102A0938202B093830205C011
:1013700011E003C012E001C013E0812FCA5FDD4F0E
:101380000FB6F894DEBF0FBECDBFDF91CF911F9196
:101390000F91FF90EF90DF90CF90BF90AF909F9014
:1013A0008F907F906F905F904F903F902F90089517
:1013B0000F931F93611571058105910549F46091A3
:1013C00070027091710280917202909173022EC02E
:1013D000633071058105910568F4009170021091E8
:1013E00071022091720230917302600F711F821F8F
:1013F000931F1CC09B01AC012250310941095109C6
:1014000060917C0270917D0280917E0290917F02BA
:101410000E94FC0C009170021091710220917202E6
:1014200030917302600F711F821F931F1F910F91E4
:101430000895CF92DF92EF92FF92CF93DF93EA016C
:101440006B017C01CC0CDD1CEE1CFF1CCC0CDD1CEC
:10145000EE1CFF1C2091800230918102409182029B
:1014600050918302C701B6010E94200D8091740241
:1014700090917502A0917602B0917702BC01CD01E6
:10148000620F731F841F951F9E0140E052E00E946F
:10149000C40A2091800230918102409182025091D1
:1014A0008302C701B6010E94200DDC01CB01BE0101
:1014B0000E94040B9F70DF91CF91FF90EF90DF901F
:1014C000CF9008958F929F92AF92BF92CF92DF926A
:1014D000EF92FF92CF93DF934B015C01EA01C12CA5
:1014E000D12C7601C501B4010E94D8096C0D7D1D77
:1014F0008E1D9F1D9E0140E052E00E94C40A60E0E4
:1015000072E0CE010E94510540E250E064E871E0D3
:1015100088EC90E00E94CF0C88EC90E00E942403BD
:10152000882339F18FEFC81AD80AE80AF80A80919F
:101530007C0290917D02A0917E02B0917F02C8163C
:10154000D906EA06FB0670F2AE01C501B4010E949D
:10155000190A4B015C0187E088169104A104B104CB
:1015600041F08FEF88169806A8068FE0B80609F0BC
:10157000B6CFDF91CF91FF90EF90DF90CF90BF90EB
:10158000AF909F908F900895CF92DF92EF92FF924D
:101590000F931F93CF93DF936B017C01EA018901C5
:1015A00060E170E083E290E00E947905A701960176
:1015B00061E18CE490E00E947F05A801BE018CE40B
:1015C00090E00E948007811107C060E170E083E233
:1015D00090E00E947C0580E0DF91CF911F910F91F8
:1015E000FF90EF90DF90CF900895860F971FFC013A
:1015F00080810895FB01E80FF91F2081818190E02F
:10160000982F8827822B08950F931F93FB01E80FD3
:10161000F91F20816181862F90E0A0E0B0E0BA2F11
:10162000A92F982F8827822B028110E020E030E03C
:10163000980111270027AC01BD01402B512B622BD3
:10164000732B838190E0A0E0B0E0B82FAA27992700
:1016500088278A019B01082B192B2A2B3B2BC901B8
:10166000B8011F910F9108958230A8F08138A8F435
:101670008150982F9695892B982F96959695892B22
:10168000982F92959F70892B982F991F9927991FB2
:10169000892B8F5F089581E0089580E808950E9466
:1016A000340B8031C1F028F4823079F0883079F041
:1016B00006C0803431F0803831F0803251F080E063
:1016C000089582E0089583E0089584E0089585E018
:1016D000089586E0089581E00895CF93DF93EC01AB
:1016E0009A01AB018881837F8883888180648883A5
:1016F00088818061888388818F7D888360E074E23F
:1017000084EF90E00E94200D822F0E944F0B988161
:10171000282F2370922B9883998186958695892B03
:101720008983CC34D105A9F460E283E290E00E9481
:10173000140360E283E290E00E94190360E883E210
:1017400090E00E94140360E883E290E00E941E0390
:101750000FC0CC3AD10561F48DB188608DB98AB1E2
:1017600080688AB98EB188608EB98BB18F778BB95A
:10177000DF91CF910895FC01628320E030E09181F8
:101780002F5F3F4F99231CF021153105C1F7232B03
:1017900021F48FEFFA0180830895892F807496FFDA
:1017A00005C08281FA0180838EEF08959281FA014B
:1017B00090830895FC018FEF828320E030E09181D7
:1017C0002F5F3F4F99231CF021153105C1F7232BC3
:1017D00021F48FEFFB0180830895892F807496FF99
:1017E00005C08281FB0180838EEF08959281FB0109
:1017F00090830895FC01628320E030E091812F5FA7
:101800003F4F99231CF021153105C1F7232B21F4FB
:101810008FEFFA0180830895892F807496FF05C0A9
:101820008281FA0180838EEF08959281FA0190837C
:101830000895862F90E0FC01E45FF109EC30F1059A
:1018400008F064C0EA59FF4F0C94420D48E065EA85
:1018500071E088EC90E00E94CF0C089544E06EEABD
:1018600071E088EC90E00E94CF0C089543E063EBB8
:1018700071E088EC90E00E94CF0C08954CE067EB9B
:1018800071E088EC90E00E94CF0C089545E064EC94
:1018900071E088EC90E00E94CF0C089545E06AEC7E
:1018A00071E088EC90E00E94CF0C089546E060ED76
:1018B00071E081E090E00E94CF0C089546E067ED72
:1018C00071E088EC90E00E94CF0C089546E06EED48
:1018D00071E088EC90E00E94CF0C08954AE065EE3C
:1018E00071E088EC90E00E94CF0C089546E060EF34
:1018F00071E088EC90E00E94CF0C089546E067EF1D
:1019000071E088EC90E00E94CF0C08954BE06EEF00
:1019100071E088EC90E00E94CF0C0895FC011582E4
:1019200087E684831082128286E08283118288E1B6
:1019300081830895FC01908195FFFDCF6683089512
:10194000FC0190819923ECF7868108958AE092E06A
:101950000895CF93DF93DC0141111AC0242F30E0AA
:10196000FD01E20FF31FE491EB01C20FD31FE883E7
:101970004F5FE111F3CF0FC0292F30E0FD01E20FDF
:10198000F31FE491EB01C20FD31FE8839F5F01C0F7
:1019900090E0941788F3842FDF91CF910895EF9210
:1019A000FF920F931F93CF93DF937C018B01D42F72
:1019B000411118C0FB016081C0E008C0C7010E944E
:1019C0009A0CCF5FF801EC0FF11D60816111F6CF29
:1019D0000CC0F801EC0FF11D6081C7010E949A0C48
:1019E000CF5F01C0C0E0CD17A0F3DF91CF911F9171
:1019F0000F91FF90EF900895DB018F939F930E94CA
:101A0000480DBF91AF91A29F800D911DA39F900D96
:101A1000B29F900D11240895AA1BBB1B51E107C072
:101A2000AA1FBB1FA617B70710F0A61BB70B881F6E
:101A3000991F5A95A9F780959095BC01CD010895FD
:101A4000A1E21A2EAA1BBB1BFD010DC0AA1FBB1FC2
:101A5000EE1FFF1FA217B307E407F50720F0A21B34
:101A6000B30BE40BF50B661F771F881F991F1A94A1
:101A700069F760957095809590959B01AC01BD01CB
:101A8000CF010895EE0FFF1F0590F491E02D09940A
:101A90000E94530DA59F900DB49F900DA49F800DA3
:101AA000911D11240895A29FB001B39FC001A39F6F
:101AB000700D811D1124911DB29F700D811D112487
:101AC000911D08951F93FC0199278827BC01E89474
:101AD00011911032E9F3193010F01E30C8F31B32A7
:101AE00051F01D3249F4689406C00E94890D610FBF
:101AF000711D811D911D119110531A30B0F33EF4E8
:101B000090958095709561957F4F8F4F9F4F1F9156
:101B10000895592F482F372F262F660F771F881FBC
:101B2000991F660F771F881F991F620F731F841FED
:101B3000951F660F771F881F991F0895AEE0B0E0CC
:101B4000E4EAFDE00C945F100D891E8986E08C8329
:101B50001A8309838FEF9FE79E838D83AE01475ED3
:101B60005F4F6F89788DCE0101960E94C00DEF8185
:101B7000F885E00FF11F10822E96E4E00C947B10A4
:101B8000ABE0B0E0E6ECFDE00C9451106C017B01A1
:101B90008A01FC0117821682838181FFCCC1CE01AC
:101BA00001963C01F6019381F70193FD859193FF26
:101BB00081917F01882309F4BAC1853239F493FDFC
:101BC000859193FF81917F01853229F4B60190E0E0
:101BD0000E94B70FE7CF912C212C312CFFE1F31598
:101BE000D8F08B3279F038F4803279F08332A1F476
:101BF000232D20611DC08D3261F0803369F4232DC7
:101C0000216016C0832D8260382EE32DE4603E2EC5
:101C10002AC0F32DF8601DC037FC2DC020ED280F21
:101C20002A3040F08E32B9F436FC81C1232D206475
:101C3000322E19C036FE06C08AE0989E200D11246F
:101C4000922E11C0EAE02E9E200D1124222EF32D9B
:101C5000F0623F2E08C08C3621F4832D8068382E28
:101C600002C0883641F4F70193FD859193FF81917D
:101C70007F018111B3CF982F9F7D9554933028F425
:101C80000C5F1F4F9FE399830DC0833631F083377C
:101C900071F0833509F059C021C0F8018081898332
:101CA0000E5F1F4F88248394912C530113C0280189
:101CB000F2E04F0E511CF801A080B18036FE03C047
:101CC000692D70E002C06FEF7FEFC5010E94AC0F7D
:101CD0004C018201F32DFF773F2E16C0280122E030
:101CE000420E511CF801A080B18036FE03C0692D60
:101CF00070E002C06FEF7FEFC5010E94A10F4C01A1
:101D0000F32DF0683F2E820133FC1BC0822D90E042
:101D100088169906B0F4B60180E290E00E94B70FF1
:101D20002A94F4CFF50137FC859137FE81915F014C
:101D3000B60190E00E94B70F21102A9421E0821A88
:101D400091088114910471F7E8C0843611F0893646
:101D500041F5F80137FE07C060817181828193816E
:101D60000C5F1F4F08C060817181072E000C880B2B
:101D7000990B0E5F1F4FF32DFF763F2E97FF09C083
:101D800090958095709561957F4F8F4F9F4FF0682C
:101D90003F2E2AE030E0A3010E94F30F882E861820
:101DA00045C0853731F4232D2F7EB22E2AE030E056
:101DB00025C0932D997FB92E8F36C1F018F4883540
:101DC00079F0B5C0803719F0883721F0B0C0E92F1D
:101DD000E061BE2EB4FE0DC0FB2DF460BF2E09C025
:101DE00034FE0AC0292F2660B22E06C028E030E05B
:101DF00005C020E130E002C020E132E0F801B7FE8A
:101E000007C060817181828193810C5F1F4F06C082
:101E10006081718180E090E00E5F1F4FA3010E94FE
:101E2000F30F882E8618FB2DFF773F2E36FE0DC050
:101E3000232D2E7FA22E891458F434FE0BC032FCC1
:101E400009C0832D8E7EA82E05C0B82CA32C03C0FC
:101E5000B82C01C0B92CA4FE0FC0FE01E80DF11D85
:101E60008081803321F49A2D997EA92E09C0A2FE8B
:101E700006C0B394B39404C08A2D867809F0B39455
:101E8000A3FC11C0A0FE06C0B21488F4280C922C4A
:101E90009B180EC0B21460F4B60180E290E00E947C
:101EA000B70FB394F7CFB21418F42B1802C0982CC4
:101EB000212CA4FE10C0B60180E390E00E94B70F71
:101EC000A2FE17C0A1FC03C088E790E002C088E52D
:101ED00090E0B6010CC08A2D867859F0A1FE02C0B0
:101EE0008BE201C080E2A7FC8DE2B60190E00E9487
:101EF000B70F891438F4B60180E390E00E94B70F61
:101F00009A94F7CF8A94F301E80DF11D8081B60110
:101F100090E00E94B70F8110F5CF222009F442CE45
:101F2000B60180E290E00E94B70F2A94F6CFF60146
:101F30008681978102C08FEF9FEF2B96E2E10C9490
:101F40006D10FC010590615070400110D8F780952C
:101F500090958E0F9F1F0895FC0161507040019075
:101F60000110D8F7809590958E0F9F1F08950F93BD
:101F70001F93CF93DF93FB01238121FD03C08FEFDC
:101F80009FEF2CC022FF16C04681578124813581E6
:101F90004217530744F4A081B1819D012F5F3F4F49
:101FA000318320838C93268137812F5F3F4F378386
:101FB000268314C08B01EC01FB010084F185E02D28
:101FC0000995892BE1F6D80116968D919C9117976A
:101FD000019617969C938E931697CE01DF91CF9121
:101FE0001F910F910895FA01AA27283051F120314D
:101FF00081F1E8946F936E7F6E5F7F4F8F4F9F4F9D
:10200000AF4FB1E03ED0B4E03CD0670F781F891FDE
:102010009A1FA11D680F791F8A1F911DA11D6A0FAC
:10202000711D811D911DA11D20D009F468943F915F
:102030002AE0269F11243019305D3193DEF6CF015E
:102040000895462F4770405D4193B3E00FD0C9F724
:10205000F6CF462F4F70405D4A3318F0495D31FD91
:102060004052419302D0A9F7EACFB4E0A6959795E4
:10207000879577956795BA95C9F7009761057105BA
:1020800008959B01AC010A2E069457954795379504
:102090002795BA95C9F7620F731F841F951FA01D5E
:1020A00008952F923F924F925F926F927F928F92FC
:1020B0009F92AF92BF92CF92DF92EF92FF920F93D7
:1020C0001F93CF93DF93CDB7DEB7CA1BDB0B0FB6E1
:1020D000F894DEBF0FBECDBF09942A88398848889E
:1020E0005F846E847D848C849B84AA84B984C88434
:1020F000DF80EE80FD800C811B81AA81B981CE0F2B
:10210000D11D0FB6F894DEBF0FBECDBFED0108950F
:04211000F894FFCF71
:102114002535642E20005B4449525D0D0A0053446A
:1021240020696E697469616C697A65640A00456E38
:10213400747279204E756D6265723A0A00496E7642
:10214400616C696420456E747279204E756D6265A8
:10215400722E2050726F766964652061206E6577F7
:10216400206F6E653A0A00746573743A20256C58C2
:102174000A0053746172740A0053746F700A002564
:10218400702000307825342E345820200025322E3B
:1021940032582000456E746572203020746F2073AD
:1021A400746F702C203120746F20636F6E74696EAD
:1021B40075653A0A0074696D656F75740A00535049
:1021C400490A0053440A00564F4C544147452121C3
:1021D40021210A00434D44300A00434D44380A008B
:1021E400434D4435380A00434D4435350A00434DC8
:1021F4004434310A00434D44343154494D450A00B6
:10220400544F4B454E0A00434D4431360A00696D24
:0A221400706F737369626C650A0055
:00000001FF
