S01300004578706572696D656E74352E73726563BB
S11300000C9492000C94AF000C94AF000C94AF00CD
S11300100C94AF000C94AF000C94AF000C94AF00A0
S11300200C94AF000C94AF000C94AF000C94AF0090
S11300300C94AF000C94AF000C94AF000C94AF0080
S11300400C94AF000C94AF000C94AF000C94AF0070
S11300500C94AF000C94AF000C94AF000C94AF0060
S11300600C94AF000C94AF000C94AF000C94AF0050
S11300700C94AF000C94AF000C94AF000C94AF0040
S11300800C94AF000C94AF000C94AF000C94AF0030
S11300900C94AF000C94AF000C94AF000C94AF0020
S11300A00C94AF000C94AF000C94AF000C94AF0010
S11300B00C94AF000C94AF000C94AF000C94AF0000
S11300C00C94AF000C94AF000C94AF003A0C420CAB
S11300D0320C2A0C220C1A0C120C0A0C020CFA0B0D
S11300E0F20BEA0B416464722E204F6666736574EA
S11300F020202030202031202032202033202034A2
S11301002020352020362020372020382020392078
S1130110204120204220204320204420204520202C
S1130120460A0D0011241FBECFEFD8E0DEBFCDBFBD
S113013012E0A0E0B1E0ECE9F0E202C005900D921B
S1130140A030B107D9F722E0A0E0B2E001C01D92CF
S1130150AE37B207E1F70E94B4030C944C100C9430
S1130160000080E592E008952F923F924F925F92B3
S11301706F927F928F929F92AF92BF92CF92DF92B3
S1130180EF92FF920F931F93CF93DF93CDB7DEB718
S113019027970FB6F894DEBF0FBECDBF4B015C01AD
S11301A05A8349830E946A0C8C839D8380915102F7
S11301B0823049F44090620250906302609064027D
S11301C07090650205C040905002512C612C712C36
S11301D0409154025091550229813A81C501B401DC
S11301E00E94880A8111CDC07501640100E010E00D
S11301F01F821E8269817A818E819F810E94B90A41
S1130200382E25EE821709F48AC0882309F487C0A2
S113021069817A818E819F810B960E94B90A8B83B2
S11302208E7009F07CC00F5F1F4F1F930F9380E007
S113023091E09F938F938D818F939C819F930E94D4
S1130240620D40E06C817D8188EC90E00E94930C0B
S11302500F900F900F900F900F900F90212C0EC0C5
S113026069817A818E819F81820D911D0E94B90AD4
S1130270682F88EC90E00E945E0C239427E02215FE
S113028078F78B8184FD10C026C069817A818E81C4
S11302909F81820D911D0E94B90A682F88EC90E01D
S11302A00E945E0C239403C06894222423F89AE0ED
S11302B0921558F788E0E6E0F1E0AC81BD81019049
S11302C00D928A95E1F740E06C817D8188EC90E0A5
S11302D00E94930C24C06EE288EC90E00E945E0CB5
S11302E06894222423F80EC069817A818E819F81CB
S11302F0820D911D0E94B90A682F88EC90E00E943B
S11303005E0C23942AE0221578F76DE088EC90E0E7
S11303100E945E0C6AE088EC90E00E945E0C8E8184
S11303209F8180969F838E838F3F914038F18FEF1A
S1130330C81AD80AE80AF80AD701C601881999091F
S1130340AA09BB0984159505A605B70578F440915B
S113035054025091550229813A81C701B6010E9485
S1130360880A811106C01F821E8208C01068312CC1
S113037005C0312C00E010E01F821E8231103ACFFC
S113038002C000E010E0C80127960FB6F894DEBF63
S11303900FBECDBFDF91CF911F910F91FF90EF90D2
S11303A0DF90CF90BF90AF909F908F907F906F9091
S11303B05F904F903F902F9008952F923F924F92CD
S11303C05F926F927F928F929F92AF92BF92CF92E1
S11303D0DF92EF92FF921F93CF93DF93CDB7DEB7F7
S11303E02C970FB6F894DEBF0FBECDBF6B017C0116
S11303F05A874987190180915102823049F48090CB
S1130400620290906302A0906402B090650206C0FC
S113041080915002882E912CA12CB12C4091540231
S1130420509155029101C701B6010E94880A8111B9
S1130430C7C02601370118861F8219821A821B82BF
S11304401C8220E030E03C872B87B1018B859C85A2
S11304500E94B90A182F853E09F47CC0882309F448
S113046079C04B855C85455F5F4F5E834D83B101E9
S1130470CA010E94B90A8E7009F06CC08F819885F8
S1130480019698878F83A985BA858A179B0709F0F7
S113049061C080915102843031F5B1018B859C8516
S11304A045960E94B90A90E0A0E0B0E02227382FD8
S11304B0492F5A2F29833A834B835C83B1018B855F
S11304C09C8544960E94B90A29813A814B815C81BA
S11304D0282BDA01C9012227382F492F5A2F2983C3
S11304E03A834B835C83B1018B859C854B960E9438
S11304F0B90A29813A814B815C81282BDA01C9012F
S11305002227382F492F5A2F29833A834B835C8320
S1130510B1018B859C854A960E94B90A29813A814A
S11305204B815C81282B29833A834B835C83B10103
S11305308D819E810E94B90A84FF0BC089819A81B2
S1130540AB81BC81B06189839A83AB83BC8310E0A7
S113055001C010E0AB85BC859096BC87AB87AF3FEC
S1130560B14058F13FEF431A530A630A730AD301A7
S1130570C2018C199D09AE09BF0988159905AA0500
S1130580BB0570F440915402509155029101C3018E
S1130590B2010E94880A811105C01C861B860DC009
S11305A010E00BC010E01C861B8680E090E0A0E009
S11305B0B0E889839A83AB83BC83111146CF08C00A
S11305C020E030E040E050E829833A834B835C83A9
S11305D089819A81AB81BC81892B8A2B8B2B41F435
S11305E020E030E040E050E829833A834B835C8389
S11305F069817A818B819C812C960FB6F894DEBF39
S11306000FBECDBFDF91CF911F91FF90EF90DF9090
S1130610CF90BF90AF909F908F907F906F905F909E
S11306204F903F902F900895FC012181622B6183AC
S11306300895FC012281622B62830895FC0192815A
S113064060956923628308958F929F92AF92BF92BF
S1130650EF92FF920F931F93CF93DF93CDB7DEB743
S11306602B970FB6F894DEBF0FBECDBF7C0180E0A0
S113067008C0E1E0F0E0EC0FFD1FE80FF11D10826F
S11306808F5F8B30B0F388248A94982C540100E057
S1130690C7010E94640C182F80ED810F8A3068F422
S11306A0612FC7010E945E0CE1E0F0E0EC0FFD1F3A
S11306B0E00FF11D10830F5F2DC0183011F01F37AC
S11306C0A9F40150E1E0F0E0EC0FFD1FE00FF11D93
S11306D0108268E0C7010E945E0C60E2C7010E94BC
S11306E05E0C68E0C7010E945E0C14C01D3021F04E
S11306F01A3011F01E3271F4CE0101960E94260DBB
S11307004B015C016DE0C7010E945E0C6AE0C70109
S11307100E945E0C0A3071F4CE0101960E94260DEF
S11307204B015C016DE0C7010E945E0C6AE0C701E9
S11307300E945E0C8FEF88169806A806B80609F486
S1130740A7CFC501B4012B960FB6F894DEBF0FBE38
S1130750CDBFDF91CF911F910F91FF90EF90BF908C
S1130760AF909F908F9008958F929F92AF92BF9277
S1130770FF920F931F93CF93DF93CDB7DEB7C3528E
S1130780D2400FB6F894DEBF0FBECDBF60E875E26D
S113079088EC90E00E94520C40E85AE166E070E078
S11307A08CE490E00E94310B87E0E7E5F1E0DE01A4
S11307B0AF5FBD4F01900D928A95E1F786E0EEE5BB
S11307C0F1E0DE01A85FBD4F01900D928A95E1F73B
S11307D060E183E290E00E94140346E0BE016F5F93
S11307E07D4F88EC90E00E94930C8CE490E00E9492
S11307F0EA05182F882329F0682F88EC90E00E94DE
S1130800DD0B1111F2CF0E94B1008C01CE01825F89
S11308109D4F0E94BF0786E1FE01E25FFD4FD801B4
S113082001900D928A95E1F760E070E0CB010E949F
S11308309C094B015C0140E052E16AE770E08CE402
S113084090E00E94310B4FE06EE071E088EC90E0A4
S11308500E94930C9E012F5F3F4F40E052E0C50180
S1130860B4010E94880A81113EC0AE014F5F5F4F00
S1130870C501B4010E94B400F82E4EE06EE171E0AF
S113088088EC90E00E94930C88EC90E00E94240392
S11308900BC049E26DE271E088EC90E00E94930C99
S11308A088EC90E00E9424030F2D10E020E030E05B
S11308B0061717072807390760F39E012F5F3F4F7C
S11308C0AB01C501B4010E94DD0194FF06C09F7015
S11308D00E949C094B015C01C8CFAE014F5F5F4F82
S11308E00E94260AC2CF682F88EC90E00E94DD0B9C
S11308F045E0BE01685F7D4F88EC90E00E94930C58
S11309006AE088EC90E00E945E0C80E090E0CD5DAF
S1130910DD4F0FB6F894DEBF0FBECDBFDF91CF9190
S11309201F910F91FF90BF90AF909F908F9008956B
S1130930CF92DF92FF920F931F93CF93DF938C019B
S11309406B010E946A0CF82ED92F0C0D1D1D1F93EC
S11309500F9384E691E09F938F93DF93FF920E941D
S1130960620D40E06F2D7D2F88EC90E00E94930C87
S1130970DF92CF9288E691E09F938F93DF93FF926B
S11309800E94620D40E06F2D7D2F88EC90E00E9464
S1130990930C8DB79EB70C960FB6F8949EBF0FBEFE
S11309A08DBFC0E01CC0F801EC0FF11D80811F92C7
S11309B08F9322E731E03F932F93DF93FF920E94BE
S11309C0620D40E06F2D7D2F88EC90E00E94930C27
S11309D0CF5F0F900F900F900F900F900F90C0313A
S11309E010F3C0E00EC0F801EC0FF11D608180EE41
S11309F0860F803608F06EE288EC90E00E945E0C70
S1130A00CF5FC03180F36DE088EC90E00E945E0C13
S1130A106AE088EC90E00E945E0CDF91CF911F9118
S1130A200F91FF90DF90CF900895EF92FF920F9374
S1130A301F93CF93DF937C018B010E946A0CEC011E
S1130A4040E0BC0184EE90E00E946D0C40E0BE01E9
S1130A5088EC90E00E94930CC0E0D0E0BE01C70196
S1130A600E9498046096C017D107C0F3DF91CF911C
S1130A701F910F91FF90EF9008950E941E03089517
S1130A800E94190308958F929F92AF92BF92EF92A2
S1130A90FF920F931F93CF93DF931F92CDB7DEB7CF
S1130AA06034E0F549015A017C01162F1064AE014F
S1130AB04F5F5F4F612F0E94BE0B811130C004E075
S1130AC01CC0402F50E041505109440F551F440FA2
S1130AD0551F440F551FC501B40104C09695879551
S1130AE0779567954A95D2F7AE014F5F5F4FC7017F
S1130AF00E94BE0B811113C001500111E2CF1034CA
S1130B0011F061E001C065E9183409F467E8AE0149
S1130B104F5F5F4FC7010E94BE0B01C08EEF0F9065
S1130B20DF91CF911F910F91FF90EF90BF90AF9005
S1130B309F908F900895CF92DF92EF92FF920F9340
S1130B401F93CF93DF931F92CDB7DEB77C01062F9F
S1130B506A01198210E0AE014F5F5F4F6FEFC7016A
S1130B600E94BE0B1F5F89818F3F11F41111F3CFD7
S1130B70112329F1982F9E7F21F0F60180838DEFB8
S1130B801FC0F6018083023078F411C0AE014F5FBC
S1130B905F4F6FEFC7010E94BE0BF601E10FF11D1D
S1130BA0898180831F5F01C011E0011778F7AE01CE
S1130BB04F5F5F4F6FEFC7010E94BE0B01C08FEF05
S1130BC00F90DF91CF911F910F91FF90EF90DF90E5
S1130BD0CF9008958F929F92AF92BF92EF92FF921F
S1130BE00F931F93CF93DF93CDB7DEB729970FB63B
S1130BF0F894DEBF0FBECDBF7C011982FE01329690
S1130C0088E0DF011D928A95E9F760E183E290E0D4
S1130C100E94400510E008C0AE014F5F5F4F6FEFC8
S1130C20C7010E947F0B1F5F1830B0F360E183E2BD
S1130C3090E00E943D0520E030E0A90160E0C7019A
S1130C400E94430581110CC0AE014E5F5F4F61E00D
S1130C50C7010E949B0560E183E290E00E94400589
S1130C608A81813009F0DCC060E183E290E00E9477
S1130C703D052AEA31E040E050E068E0C7010E9407
S1130C804305182F81110DC0AE014E5F5F4F65E023
S1130C90C7010E949B05182F60E183E290E00E9447
S1130CA040058A81813059F4111109C08D81813048
S1130CB009F0B8C08E818A3A49F08CEFD4C08530EF
S1130CC009F0B2C0812C912C540105C0812C912CC7
S1130CD054016894B6F860E183E290E00E943D0517
S1130CE020E030E0A9016AE3C7010E9443058111B5
S1130CF09DC0AE014E5F5F4F65E0C7010E949B053A
S1130D00182F60E183E290E00E944005111190C029
S1130D108A81813009F08EC08C818C7F8C3F09F0F0
S1130D208BC000E010E033C060E183E290E00E94F9
S1130D303D0520E030E0A90167E3C7010E944305B7
S1130D4081117CC0AE014E5F5F4F61E0C7010E941C
S1130D509B058A81813009F073C0A501940169E281
S1130D60C7010E94430581116DC0AE014E5F5F4F04
S1130D7061E0C7010E949B05811166C00F5F1F4F90
S1130D8009F464C060E183E290E00E9440058A8136
S1130D908111CACF60E183E290E00E943D0520E02A
S1130DA030E0A9016AE3C7010E944305811150C0E4
S1130DB0AE014E5F5F4F65E0C7010E949B05182F8F
S1130DC060E183E290E00E944005111143C08B81F1
S1130DD088230CF041C0807C803C09F03FC060E176
S1130DE083E290E00E943D0520E032E040E050E0E4
S1130DF060E1C7010E944305811132C0AE014E5F1C
S1130E005F4F61E0C7010E949B05182F8A81811101
S1130E1029C060E183E290E00E944005812F23C055
S1130E208BEF21C08CEF1FC08AEF1DC089EF1BC060
S1130E3089EF19C089EF17C089EF15C088EF13C077
S1130E4088EF11C087EF0FC087EF0DC086EF0BC08E
S1130E5089EF09C089EF07C089EF05C089EF03C096
S1130E6085EF01C085EF29960FB6F894DEBF0FBE5B
S1130E70CDBFDF91CF911F910F91FF90EF90BF9065
S1130E80AF909F908F9008958F929F92AF92BF9250
S1130E90CF92DF92EF92FF920F931F93CF93DF9342
S1130EA01F92CDB7DEB77C015B016A01198210E0A5
S1130EB0AE014F5F5F4F6FEFC7010E94BE0B1F5F14
S1130EC09981992324F4811102C01111F1CF811168
S1130ED043C0911143C0AE014F5F5F4F6FEFC70135
S1130EE00E94BE0B082F1F5F89818F3F21F40111DF
S1130EF002C01111F0CF8E3F99F5BE016F5F7F4F95
S1130F00C7010E949E0B8981F60180838824839403
S1130F10912C10C0AE014F5F5F4F6FEFC7010E946D
S1130F20BE0B082FF601E80DF91D89818083FFEFC0
S1130F308F1A9F0A8A149B0468F310E009C0AE015B
S1130F404F5F5F4F6FEFC7010E947F0B082F1F5F3A
S1130F501330A8F3802F05C08BEF03C08AEF01C0C4
S1130F608FEF0F90DF91CF911F910F91FF90EF9032
S1130F70DF90CF90BF90AF909F908F9008952F9265
S1130F803F924F925F926F927F928F929F92AF9215
S1130F90BF92CF92DF92EF92FF920F931F93CF9362
S1130FA0DF93CDB7DEB7C650D2400FB6F894DEBF9C
S1130FB00FBECDBF1C019E012F5F3F4F40E052E0AA
S1130FC060E070E0CB010E94880A182F811194C15F
S1130FD089818B3EA9F0893EB9F0BE016F5F7F4FD6
S1130FE086EC91E00E94C80A6B017C019E012F5F90
S1130FF03F4F40E052E00E94880A81117FC107C040
S1131000C12CD12C760103C0C12CD12C760189814D
S11310108B3E19F0893E09F073C1BE016F5F7F4FAB
S11310208BE090E00E94BE0AD10115969C938E93AA
S11310301497BE016F5F7F4F8DE090E00E94B90A64
S1131040F1018083BE016F5F7F4F8EE090E00E94CC
S1131050BE0A5C01BE016F5F7F4F80E190E00E9499
S1131060B90A082FBE016F5F7F4F81E190E00E94B3
S1131070BE0ACB5FDD4F99838883C550D240BE0141
S11310806F5F7F4F83E190E00E94BE0A2C01612CC8
S1131090712C411451046104710449F4BE016F5F61
S11310A07F4F80E290E00E94C80A2B013C01BE0100
S11310B06F5F7F4F86E190E00E94BE0A9C0140E092
S11310C050E0CF5FDD4F288339834A835B83C1506F
S11310D0D240232B242B252B79F4BE016F5F7F4F45
S11310E084E290E00E94C80ACF5FDD4F6883798371
S11310F08A839B83C150D240D1012C9130E040E0DF
S113110050E0C301B2010E94E40C253F3F4F41056A
S1131110510520F480E1F101818304C080E2D10112
S113112011968C934501A12CB12CF10186869786EA
S1131130A08AB18A8181803229F5A02FB0E0CF5FE7
S1131140DD4F288139814A815B81C150D2400E94A0
S11311500C0D24013501460E571E681E791EBE0172
S11311606F5F7F4F8CE290E00E94C80A460E571EC4
S1131170681E791ED10116964D925D926D927C92F5
S1131180199736C0BE016F5F7F4F81E190E00E94E6
S1131190BE0A880F991F82959295907F9827807F29
S11311A09827F10164817581860F971F01970E942A
S11311B0D00CCB01A0E0B0E0828B938BA48BB58BD9
S11311C04684578460887188A02FB0E0CF5FDD4FDC
S11311D0288139814A815B81C150D2400E940C0D23
S11311E0460E571E681E791E468257826086718697
S11311F0F101468157816085718582899389A4892B
S1131200B589840F951FA61FB71F82879387A4876C
S1131210B587D701C601880D991DAA1DBB1D8093F2
S11312207A0290937B02A0937C02B0937D02CB5F01
S1131230DD4F88819981C550D240880F991F8295CE
S11312409295907F9827807F98270480F581E02DE0
S11312508E0F9F1F0197BF010E94D00C2B01612CA0
S1131260712C40926E0250926F02609270027092E2
S11312707102A02FB0E0CF5FDD4F288139814A8110
S11312805B81C150D2400E940C0DDC01CB01880D62
S1131290991DAA1DBB1D480E591E6A1E7B1EC40C37
S11312A0D51CE61CF71CC0926602D0926702E0923D
S11312B06802F0926902D1018C9190E0A0E0B0E064
S11312C08093720290937302A0937402B093750298
S11312D080926A0290926B02A0926C02B0926D02AC
S11312E0CF01A0E0B0E08093760290937702A093C0
S11312F07802B093790205C011E003C012E001C086
S113130013E0812FCA5FDD4F0FB6F894DEBF0FBE26
S1131310CDBFDF91CF911F910F91FF90EF90DF90A0
S1131320CF90BF90AF909F908F907F906F905F9081
S11313304F903F902F9008950F931F93611571055F
S11313408105910549F4609166027091670280916C
S11313506802909169022EC0633071058105910580
S113136068F400916602109167022091680230913E
S11313706902600F711F821F931F1CC09B01AC0187
S1131380225031094109510960917202709173022E
S113139080917402909175020E94C00C00916602C3
S11313A0109167022091680230916902600F711FE9
S11313B0821F931F1F910F910895CF92DF92EF9296
S11313C0FF92CF93DF93EA016B017C01CC0CDD1C0F
S11313D0EE1CFF1CCC0CDD1CEE1CFF1C20917602C5
S11313E0309177024091780250917902C701B60199
S11313F00E94E40C80916A0290916B02A0916C02AD
S1131400B0916D02BC01CD01620F731F841F951F43
S11314109E0140E052E00E94880A209176023091B9
S113142077024091780250917902C701B6010E9477
S1131430E40CDC01CB01BE010E94C80A9F70DF915D
S1131440CF91FF90EF90DF90CF9008958F929F926D
S1131450AF92BF92CF92DF92EF92FF92CF93DF933E
S11314604B015C01EA01C12CD12C7601C501B40108
S11314700E949C096C0D7D1D8E1D9F1D9E0140E0E8
S113148052E00E94880A60E072E0CE010E941505D5
S113149040E250E069E771E088EC90E00E94930C30
S11314A088EC90E00E942403882339F18FEFC81A56
S11314B0D80AE80AF80A8091720290917302A09106
S11314C07402B0917502C816D906EA06FB0670F2DA
S11314D0AE01C501B4010E94DD094B015C0187E046
S11314E088169104A104B10441F08FEF8816980680
S11314F0A8068FE0B80609F0B6CFDF91CF91FF9030
S1131500EF90DF90CF90BF90AF909F908F90089511
S1131510CF92DF92EF92FF920F931F93CF93DF93BB
S11315206B017C01EA01890160E170E083E290E0F3
S11315300E943D05A701960161E18CE490E00E94C0
S11315404305A801BE018CE490E00E944407811188
S113155007C060E170E083E290E00E94400580E013
S1131560DF91CF911F910F91FF90EF90DF90CF907B
S11315700895860F971FFC0180810895FB01E80FF1
S1131580F91F2081818190E0982F8827822B08956C
S11315900F931F93FB01E80FF91F20816181862FB0
S11315A090E0A0E0B0E0BA2FA92F982F8827822BD3
S11315B0028110E020E030E0980111270027AC01FF
S11315C0BD01402B512B622B732B838190E0A0E053
S11315D0B0E0B82FAA27992788278A019B01082BF6
S11315E0192B2A2B3B2BC901B8011F910F91089588
S11315F08230A8F08138A8F48150982F9695892BD1
S1131600982F96959695892B982F92959F70892B54
S1131610982F991F9927991F892B8F5F089581E02F
S1131620089580E808950E94F80A8031C1F028F4F2
S1131630823079F0883079F006C0803431F0803817
S113164031F0803251F080E0089582E0089583E023
S1131650089584E0089585E0089586E0089581E082
S11316600895CF93DF93EC019A01AB018881837FC6
S11316708883888180648883888180618883888165
S11316808F7D888360E074E284EF90E00E94E40C34
S1131690822F0E94130B9881282F2370922B9883FA
S11316A0998186958695892B8983CC34D105A9F4B3
S11316B060E283E290E00E94140360E283E290E03F
S11316C00E94190360E883E290E00E94140360E83A
S11316D083E290E00E941E030FC0CC3AD10561F46E
S11316E08DB188608DB98AB180688AB98EB18860FD
S11316F08EB98BB18F778BB9DF91CF910895FC01AF
S1131700628320E030E091812F5F3F4F99231CF0EA
S113171021153105C1F7232B21F48FEFFA018083C2
S11317200895892F807496FF05C08281FA01808311
S11317308EEF08959281FA0190830895FC018FEF52
S1131740828320E030E091812F5F3F4F99231CF08A
S113175021153105C1F7232B21F48FEFFB01808381
S11317600895892F807496FF05C08281FB018083D0
S11317708EEF08959281FB0190830895FC016283AA
S113178020E030E091812F5F3F4F99231CF0211519
S11317903105C1F7232B21F48FEFFA0180830895DB
S11317A0892F807496FF05C08281FA0180838EEFB1
S11317B008959281FA0190830895862F90E0FC01A8
S11317C0E45FF109EC30F10508F064C0EA59FF4F19
S11317D00C94060D48E06AE971E088EC90E00E9400
S11317E0930C089544E063EA71E088EC90E00E9471
S11317F0930C089543E068EA71E088EC90E00E945D
S1131800930C08954CE06CEA71E088EC90E00E943F
S1131810930C089545E069EB71E088EC90E00E9438
S1131820930C089545E06FEB71E088EC90E00E9422
S1131830930C089546E065EC71E081E090E00E942D
S1131840930C089546E06CEC71E088EC90E00E9403
S1131850930C089546E063ED71E088EC90E00E94FB
S1131860930C08954AE06AED71E088EC90E00E94E0
S1131870930C089546E065EE71E088EC90E00E94D8
S1131880930C089546E06CEE71E088EC90E00E94C1
S1131890930C08954BE063EF71E088EC90E00E94B4
S11318A0930C0895FC01158287E6848310821282CA
S11318B086E08283118288E181830895FC0190810E
S11318C095FFFDCF66830895FC0190819923ECF781
S11318D08681089580E092E00895CF93DF93DC0140
S11318E041111AC0242F30E0FD01E20FF31FE491EF
S11318F0EB01C20FD31FE8834F5FE111F3CF0FC099
S1131900292F30E0FD01E20FF31FE491EB01C20F38
S1131910D31FE8839F5F01C090E0941788F3842F5E
S1131920DF91CF910895EF92FF920F931F93CF937E
S1131930DF937C018B01D42F411118C0FB0160811E
S1131940C0E008C0C7010E945E0CCF5FF801EC0F35
S1131950F11D60816111F6CF0CC0F801EC0FF11D8F
S11319606081C7010E945E0CCF5F01C0C0E0CD174B
S1131970A0F3DF91CF911F910F91FF90EF90089505
S1131980DB018F939F930E940C0DBF91AF91A29F97
S1131990800D911DA39F900DB29F900D1124089569
S11319A0AA1BBB1B51E107C0AA1FBB1FA617B70781
S11319B010F0A61BB70B881F991F5A95A9F780959D
S11319C09095BC01CD010895A1E21A2EAA1BBB1B60
S11319D0FD010DC0AA1FBB1FEE1FFF1FA217B307F7
S11319E0E407F50720F0A21BB30BE40BF50B661F0D
S11319F0771F881F991F1A9469F7609570958095D1
S1131A0090959B01AC01BD01CF010895EE0FFF1F1E
S1131A100590F491E02D09940E94170DA59F900D57
S1131A20B49F900DA49F800D911D11240895A29F31
S1131A30B001B39FC001A39F700D811D1124911D9E
S1131A40B29F700D811D1124911D08951F93FC01F7
S1131A5099278827BC01E89411911032E9F31930D1
S1131A6010F01E30C8F31B3251F01D3249F4689453
S1131A7006C00E944D0D610F711D811D911D1191B4
S1131A8010531A30B0F33EF490958095709561959B
S1131A907F4F8F4F9F4F1F910895592F482F372FF6
S1131AA0262F660F771F881F991F660F771F881FC1
S1131AB0991F620F731F841F951F660F771F881F5E
S1131AC0991F0895AEE0B0E0E8E6FDE00C94231021
S1131AD00D891E8986E08C831A8309838FEF9FE723
S1131AE09E838D83AE01475E5F4F6F89788DCE01F3
S1131AF001960E94840DEF81F885E00FF11F10829A
S1131B002E96E4E00C943F10ABE0B0E0EAE8FDE090
S1131B100C9415106C017B018A01FC01178216825A
S1131B20838181FFCCC1CE0101963C01F6019381F2
S1131B30F70193FD859193FF81917F01882309F437
S1131B40BAC1853239F493FD859193FF81917F0168
S1131B50853229F4B60190E00E947B0FE7CF912CE7
S1131B60212C312CFFE1F315D8F08B3279F038F4C5
S1131B70803279F08332A1F4232D20611DC08D328F
S1131B8061F0803369F4232D216016C0832D8260B7
S1131B90382EE32DE4603E2E2AC0F32DF8601DC0DC
S1131BA037FC2DC020ED280F2A3040F08E32B9F4D6
S1131BB036FC81C1232D2064322E19C036FE06C0A6
S1131BC08AE0989E200D1124922E11C0EAE02E9EE8
S1131BD0200D1124222EF32DF0623F2E08C08C36E6
S1131BE021F4832D8068382E02C0883641F4F70131
S1131BF093FD859193FF81917F018111B3CF982F3C
S1131C009F7D9554933028F40C5F1F4F9FE3998375
S1131C100DC0833631F0833771F0833509F059C034
S1131C2021C0F801808189830E5F1F4F882483942B
S1131C30912C530113C02801F2E04F0E511CF801FE
S1131C40A080B18036FE03C0692D70E002C06FEF42
S1131C507FEFC5010E94700F4C018201F32DFF77C5
S1131C603F2E16C0280122E0420E511CF801A0802C
S1131C70B18036FE03C0692D70E002C06FEF7FEFC4
S1131C80C5010E94650F4C01F32DF0683F2E8201BF
S1131C9033FC1BC0822D90E088169906B0F4B6017F
S1131CA080E290E00E947B0F2A94F4CFF50137FC88
S1131CB0859137FE81915F01B60190E00E947B0F10
S1131CC021102A9421E0821A91088114910471F759
S1131CD0E8C0843611F0893641F5F80137FE07C0B3
S1131CE060817181828193810C5F1F4F08C0608184
S1131CF07181072E000C880B990B0E5F1F4FF32D7B
S1131D00FF763F2E97FF09C0909580957095619559
S1131D107F4F8F4F9F4FF0683F2E2AE030E0A301A2
S1131D200E94B70F882E861845C0853731F4232DBD
S1131D302F7EB22E2AE030E025C0932D997FB92E54
S1131D408F36C1F018F4883579F0B5C0803719F0B2
S1131D50883721F0B0C0E92FE061BE2EB4FE0DC07B
S1131D60FB2DF460BF2E09C034FE0AC0292F266063
S1131D70B22E06C028E030E005C020E130E002C009
S1131D8020E132E0F801B7FE07C0608171818281F1
S1131D9093810C5F1F4F06C06081718180E090E0E9
S1131DA00E5F1F4FA3010E94B70F882E8618FB2DCC
S1131DB0FF773F2E36FE0DC0232D2E7FA22E8914D1
S1131DC058F434FE0BC032FC09C0832D8E7EA82E3D
S1131DD005C0B82CA32C03C0B82C01C0B92CA4FE98
S1131DE00FC0FE01E80DF11D8081803321F49A2D8E
S1131DF0997EA92E09C0A2FE06C0B394B39404C070
S1131E008A2D867809F0B394A3FC11C0A0FE06C005
S1131E10B21488F4280C922C9B180EC0B21460F4EF
S1131E20B60180E290E00E947B0FB394F7CFB21426
S1131E3018F42B1802C0982C212CA4FE10C0B60153
S1131E4080E390E00E947B0FA2FE17C0A1FC03C0B8
S1131E5088E790E002C088E590E0B6010CC08A2DC6
S1131E60867859F0A1FE02C08BE201C080E2A7FC93
S1131E708DE2B60190E00E947B0F891438F4B6011C
S1131E8080E390E00E947B0F9A94F7CF8A94F30149
S1131E90E80DF11D8081B60190E00E947B0F811056
S1131EA0F5CF222009F442CEB60180E290E00E94F0
S1131EB07B0F2A94F6CFF6018681978102C08FEFBB
S1131EC09FEF2B96E2E10C943110FC0105906150D8
S1131ED070400110D8F7809590958E0F9F1F08953C
S1131EE0FC016150704001900110D8F780959095E5
S1131EF08E0F9F1F08950F931F93CF93DF93FB01C2
S1131F00238121FD03C08FEF9FEF2CC022FF16C059
S1131F1046815781248135814217530744F4A081B7
S1131F20B1819D012F5F3F4F318320838C932681A4
S1131F3037812F5F3F4F3783268314C08B01EC0119
S1131F40FB010084F185E02D0995892BE1F6D80188
S1131F5016968D919C911797019617969C938E9344
S1131F601697CE01DF91CF911F910F910895FA0139
S1131F70AA27283051F1203181F1E8946F936E7FC4
S1131F806E5F7F4F8F4F9F4FAF4FB1E03ED0B4E0B5
S1131F903CD0670F781F891F9A1FA11D680F791FF6
S1131FA08A1F911DA11D6A0F711D811D911DA11D07
S1131FB020D009F468943F912AE0269F1124301917
S1131FC0305D3193DEF6CF010895462F4770405DB2
S1131FD04193B3E00FD0C9F7F6CF462F4F70405D61
S1131FE04A3318F0495D31FD4052419302D0A9F7BC
S1131FF0EACFB4E0A6959795879577956795BA95B6
S1132000C9F700976105710508959B01AC010A2E7B
S113201006945795479537952795BA95C9F7620F52
S1132020731F841F951FA01D08952F923F924F92F6
S11320305F926F927F928F929F92AF92BF92CF9254
S1132040DF92EF92FF920F931F93CF93DF93CDB75D
S1132050DEB7CA1BDB0B0FB6F894DEBF0FBECDBFD5
S113206009942A88398848885F846E847D848C84A6
S11320709B84AA84B984C884DF80EE80FD800C81AF
S11320801B81AA81B981CE0FD11D0FB6F894DEBF92
S10F20900FBECDBFED010895F894FFCF02
S113209C2535642E20005B4449525D0D0A005344DF
S11320AC20696E697469616C697A65640A00456EAD
S11320BC747279204E756D6265723A0A00496E76B7
S11320CC616C696420456E747279204E756D62651D
S11320DC722E2050726F766964652061206E65776C
S11320EC206F6E653A0A0053746172740A0053745B
S11320FC6F700A0025702000307825342E34582057
S113210C200025322E32582000456E746572203022
S113211C20746F2073746F702C203120746F2063C3
S113212C6F6E74696E75653A0A0074696D656F75C6
S113213C740A005350490A0053440A00564F4C5435
S113214C414745212121210A00434D44300A0043D3
S113215C4D44380A00434D4435380A00434D443548
S113216C350A00434D4434310A00434D4434315450
S113217C494D450A00544F4B454E0A00434D4431DA
S113218C360A00696D706F737369626C650A0000BE
S9030000FC
